{
  "_format": "hh-sol-artifact-1",
  "contractName": "WavePortal",
  "sourceName": "contracts/WavePortal.sol",
  "abi": [
    {
      "inputs": [],
      "stateMutability": "payable",
      "type": "constructor"
    },
    {
      "anonymous": false,
      "inputs": [
        {
          "indexed": true,
          "internalType": "address",
          "name": "from",
          "type": "address"
        },
        {
          "indexed": false,
          "internalType": "uint256",
          "name": "timestamp",
          "type": "uint256"
        },
        {
          "indexed": false,
          "internalType": "string",
          "name": "message",
          "type": "string"
        }
      ],
      "name": "NewWave",
      "type": "event"
    },
    {
      "inputs": [],
      "name": "getAllWaves",
      "outputs": [
        {
          "components": [
            {
              "internalType": "address",
              "name": "waver",
              "type": "address"
            },
            {
              "internalType": "string",
              "name": "message",
              "type": "string"
            },
            {
              "internalType": "uint256",
              "name": "timestamp",
              "type": "uint256"
            }
          ],
          "internalType": "struct WavePortal.Wave[]",
          "name": "",
          "type": "tuple[]"
        }
      ],
      "stateMutability": "view",
      "type": "function"
    },
    {
      "inputs": [],
      "name": "getOwnerWaves",
      "outputs": [
        {
          "internalType": "uint256",
          "name": "",
          "type": "uint256"
        }
      ],
      "stateMutability": "view",
      "type": "function"
    },
    {
      "inputs": [],
      "name": "getTotalWaves",
      "outputs": [
        {
          "internalType": "uint256",
          "name": "",
          "type": "uint256"
        }
      ],
      "stateMutability": "view",
      "type": "function"
    },
    {
      "inputs": [
        {
          "internalType": "address",
          "name": "",
          "type": "address"
        }
      ],
      "name": "lastWavedAt",
      "outputs": [
        {
          "internalType": "uint256",
          "name": "",
          "type": "uint256"
        }
      ],
      "stateMutability": "view",
      "type": "function"
    },
    {
      "inputs": [
        {
          "internalType": "string",
          "name": "_message",
          "type": "string"
        }
      ],
      "name": "wave",
      "outputs": [],
      "stateMutability": "nonpayable",
      "type": "function"
    }
  ],
  "bytecode": "0x608060405260644442620000149190620001a8565b62000020919062000245565b60018190555062000055604051806060016040528060258152602001620016e7602591396200005b60201b620007911760201c565b620002ec565b620000fb8160405160240162000072919062000168565b6040516020818303038152906040527f41304fac000000000000000000000000000000000000000000000000000000007bffffffffffffffffffffffffffffffffffffffffffffffffffffffff19166020820180517bffffffffffffffffffffffffffffffffffffffffffffffffffffffff8381831617835250505050620000fe60201b60201c565b50565b60008151905060006a636f6e736f6c652e6c6f679050602083016000808483855afa5050505050565b600062000134826200018c565b62000140818562000197565b9350620001528185602086016200020f565b6200015d81620002db565b840191505092915050565b6000602082019050818103600083015262000184818462000127565b905092915050565b600081519050919050565b600082825260208201905092915050565b6000620001b58262000205565b9150620001c28362000205565b9250827fffffffffffffffffffffffffffffffffffffffffffffffffffffffffffffffff03821115620001fa57620001f96200027d565b5b828201905092915050565b6000819050919050565b60005b838110156200022f57808201518184015260208101905062000212565b838111156200023f576000848401525b50505050565b6000620002528262000205565b91506200025f8362000205565b925082620002725762000271620002ac565b5b828206905092915050565b7f4e487b7100000000000000000000000000000000000000000000000000000000600052601160045260246000fd5b7f4e487b7100000000000000000000000000000000000000000000000000000000600052601260045260246000fd5b6000601f19601f8301169050919050565b6113eb80620002fc6000396000f3fe608060405234801561001057600080fd5b50600436106100575760003560e01c80630a9d8ef01461005c578063449d46c01461007a5780639a2cdc0814610096578063a42a4663146100b4578063bd43a908146100e4575b600080fd5b610064610102565b6040516100719190610f1e565b60405180910390f35b610094600480360381019061008f9190610b73565b61018e565b005b61009e6105dd565b6040516100ab9190610f1e565b60405180910390f35b6100ce60048036038101906100c99190610b4a565b610628565b6040516100db9190610f1e565b60405180910390f35b6100ec610640565b6040516100f99190610ddc565b60405180910390f35b600080600260003373ffffffffffffffffffffffffffffffffffffffff1673ffffffffffffffffffffffffffffffffffffffff1681526020019081526020016000205490506101876040518060400160405280601681526020017f25732068617320256420746f74616c2077617665732100000000000000000000815250338361082a565b8091505090565b42601e600360003373ffffffffffffffffffffffffffffffffffffffff1673ffffffffffffffffffffffffffffffffffffffff168152602001908152602001600020546101db9190611030565b1061021b576040517f08c379a000000000000000000000000000000000000000000000000000000000815260040161021290610efe565b60405180910390fd5b42600360003373ffffffffffffffffffffffffffffffffffffffff1673ffffffffffffffffffffffffffffffffffffffff1681526020019081526020016000208190555060016000808282546102719190611030565b92505081905550600260003373ffffffffffffffffffffffffffffffffffffffff1673ffffffffffffffffffffffffffffffffffffffff16815260200190815260200160002060008154809291906102c890611167565b919050555061030c6040518060400160405280600d81526020017f2573206861732077617665642100000000000000000000000000000000000000815250336108c9565b600460405180606001604052803373ffffffffffffffffffffffffffffffffffffffff16815260200183815260200142815250908060018154018082558091505060019003906000526020600020906003020160009091909190915060008201518160000160006101000a81548173ffffffffffffffffffffffffffffffffffffffff021916908373ffffffffffffffffffffffffffffffffffffffff16021790555060208201518160010190805190602001906103cb929190610a2a565b50604082015181600201555050606460015442446103e99190611030565b6103f39190611030565b6103fd91906111b0565b6001819055506104446040518060400160405280601681526020017f52616e646f6d20232067656e6572617465643a20256400000000000000000000815250600154610965565b600a6001541161058a5761048d6040518060400160405280600781526020017f257320776f6e2100000000000000000000000000000000000000000000000000815250336108c9565b6000655af3107a40009050478111156104db576040517f08c379a00000000000000000000000000000000000000000000000000000000081526004016104d290610ebe565b60405180910390fd5b60003373ffffffffffffffffffffffffffffffffffffffff168260405161050190610dc7565b60006040518083038185875af1925050503d806000811461053e576040519150601f19603f3d011682016040523d82523d6000602084013e610543565b606091505b5050905080610587576040517f08c379a000000000000000000000000000000000000000000000000000000000815260040161057e90610ede565b60405180910390fd5b50505b3373ffffffffffffffffffffffffffffffffffffffff167f5f7e16dc676677766a70e9c5628aa6c54ddb8b6e5188e2ae1e1f17f1ffbea71642836040516105d2929190610f39565b60405180910390a250565b60006106206040518060400160405280601781526020017f5765206861766520256420746f74616c20776176657321000000000000000000815250600054610965565b600054905090565b60036020528060005260406000206000915090505481565b60606004805480602002602001604051908101604052809291908181526020016000905b8282101561078857838290600052602060002090600302016040518060600160405290816000820160009054906101000a900473ffffffffffffffffffffffffffffffffffffffff1673ffffffffffffffffffffffffffffffffffffffff1673ffffffffffffffffffffffffffffffffffffffff1681526020016001820180546106ed90611104565b80601f016020809104026020016040519081016040528092919081815260200182805461071990611104565b80156107665780601f1061073b57610100808354040283529160200191610766565b820191906000526020600020905b81548152906001019060200180831161074957829003601f168201915b5050505050815260200160028201548152505081526020019060010190610664565b50505050905090565b610827816040516024016107a59190610dfe565b6040516020818303038152906040527f41304fac000000000000000000000000000000000000000000000000000000007bffffffffffffffffffffffffffffffffffffffffffffffffffffffff19166020820180517bffffffffffffffffffffffffffffffffffffffffffffffffffffffff8381831617835250505050610a01565b50565b6108c483838360405160240161084293929190610e50565b6040516020818303038152906040527f07c81217000000000000000000000000000000000000000000000000000000007bffffffffffffffffffffffffffffffffffffffffffffffffffffffff19166020820180517bffffffffffffffffffffffffffffffffffffffffffffffffffffffff8381831617835250505050610a01565b505050565b61096182826040516024016108df929190610e20565b6040516020818303038152906040527f319af333000000000000000000000000000000000000000000000000000000007bffffffffffffffffffffffffffffffffffffffffffffffffffffffff19166020820180517bffffffffffffffffffffffffffffffffffffffffffffffffffffffff8381831617835250505050610a01565b5050565b6109fd828260405160240161097b929190610e8e565b6040516020818303038152906040527f9710a9d0000000000000000000000000000000000000000000000000000000007bffffffffffffffffffffffffffffffffffffffffffffffffffffffff19166020820180517bffffffffffffffffffffffffffffffffffffffffffffffffffffffff8381831617835250505050610a01565b5050565b60008151905060006a636f6e736f6c652e6c6f679050602083016000808483855afa5050505050565b828054610a3690611104565b90600052602060002090601f016020900481019282610a585760008555610a9f565b82601f10610a7157805160ff1916838001178555610a9f565b82800160010185558215610a9f579182015b82811115610a9e578251825591602001919060010190610a83565b5b509050610aac9190610ab0565b5090565b5b80821115610ac9576000816000905550600101610ab1565b5090565b6000610ae0610adb84610f8e565b610f69565b905082815260208101848484011115610af857600080fd5b610b038482856110c2565b509392505050565b600081359050610b1a8161139e565b92915050565b600082601f830112610b3157600080fd5b8135610b41848260208601610acd565b91505092915050565b600060208284031215610b5c57600080fd5b6000610b6a84828501610b0b565b91505092915050565b600060208284031215610b8557600080fd5b600082013567ffffffffffffffff811115610b9f57600080fd5b610bab84828501610b20565b91505092915050565b6000610bc08383610d59565b905092915050565b610bd181611086565b82525050565b610be081611086565b82525050565b6000610bf182610fcf565b610bfb8185610ff2565b935083602082028501610c0d85610fbf565b8060005b85811015610c495784840389528151610c2a8582610bb4565b9450610c3583610fe5565b925060208a01995050600181019050610c11565b50829750879550505050505092915050565b6000610c6682610fda565b610c70818561100e565b9350610c808185602086016110d1565b610c898161129d565b840191505092915050565b6000610c9f82610fda565b610ca9818561101f565b9350610cb98185602086016110d1565b610cc28161129d565b840191505092915050565b6000610cda60348361101f565b9150610ce5826112ae565b604082019050919050565b6000610cfd60278361101f565b9150610d08826112fd565b604082019050919050565b6000610d2060298361101f565b9150610d2b8261134c565b604082019050919050565b6000610d43600083611003565b9150610d4e8261139b565b600082019050919050565b6000606083016000830151610d716000860182610bc8565b5060208301518482036020860152610d898282610c5b565b9150506040830151610d9e6040860182610da9565b508091505092915050565b610db2816110b8565b82525050565b610dc1816110b8565b82525050565b6000610dd282610d36565b9150819050919050565b60006020820190508181036000830152610df68184610be6565b905092915050565b60006020820190508181036000830152610e188184610c94565b905092915050565b60006040820190508181036000830152610e3a8185610c94565b9050610e496020830184610bd7565b9392505050565b60006060820190508181036000830152610e6a8186610c94565b9050610e796020830185610bd7565b610e866040830184610db8565b949350505050565b60006040820190508181036000830152610ea88185610c94565b9050610eb76020830184610db8565b9392505050565b60006020820190508181036000830152610ed781610ccd565b9050919050565b60006020820190508181036000830152610ef781610cf0565b9050919050565b60006020820190508181036000830152610f1781610d13565b9050919050565b6000602082019050610f336000830184610db8565b92915050565b6000604082019050610f4e6000830185610db8565b8181036020830152610f608184610c94565b90509392505050565b6000610f73610f84565b9050610f7f8282611136565b919050565b6000604051905090565b600067ffffffffffffffff821115610fa957610fa861126e565b5b610fb28261129d565b9050602081019050919050565b6000819050602082019050919050565b600081519050919050565b600081519050919050565b6000602082019050919050565b600082825260208201905092915050565b600081905092915050565b600082825260208201905092915050565b600082825260208201905092915050565b600061103b826110b8565b9150611046836110b8565b9250827fffffffffffffffffffffffffffffffffffffffffffffffffffffffffffffffff0382111561107b5761107a6111e1565b5b828201905092915050565b600061109182611098565b9050919050565b600073ffffffffffffffffffffffffffffffffffffffff82169050919050565b6000819050919050565b82818337600083830152505050565b60005b838110156110ef5780820151818401526020810190506110d4565b838111156110fe576000848401525b50505050565b6000600282049050600182168061111c57607f821691505b602082108114156111305761112f61123f565b5b50919050565b61113f8261129d565b810181811067ffffffffffffffff8211171561115e5761115d61126e565b5b80604052505050565b6000611172826110b8565b91507fffffffffffffffffffffffffffffffffffffffffffffffffffffffffffffffff8214156111a5576111a46111e1565b5b600182019050919050565b60006111bb826110b8565b91506111c6836110b8565b9250826111d6576111d5611210565b5b828206905092915050565b7f4e487b7100000000000000000000000000000000000000000000000000000000600052601160045260246000fd5b7f4e487b7100000000000000000000000000000000000000000000000000000000600052601260045260246000fd5b7f4e487b7100000000000000000000000000000000000000000000000000000000600052602260045260246000fd5b7f4e487b7100000000000000000000000000000000000000000000000000000000600052604160045260246000fd5b6000601f19601f8301169050919050565b7f547279696e6720746f207769746864726177206d6f7265206d6f6e657920746860008201527f616e2074686520636f6e7472616374206861732e000000000000000000000000602082015250565b7f4661696c656420746f207769746864726177206d6f6e65792066726f6d20636f60008201527f6e74726163742e00000000000000000000000000000000000000000000000000602082015250565b7f4d7573742077616974203330207365636f6e6473206265666f7265207761766960008201527f6e6720616761696e2e0000000000000000000000000000000000000000000000602082015250565b50565b6113a781611086565b81146113b257600080fd5b5056fea2646970667358221220da8702912cbf0ae52f4b65b879db73b647c97a3bf996ccc4439495b52b89551b64736f6c63430008040033596f20796f2c204920616d206120636f6e747261637420616e64204920616d20736d617274",
  "linkReferences": {},
  "deployedLinkReferences": {}
}